:0300000002017585
:0C017500787FE4F6D8FD758109020003D4
:1001130075B00E7F3C7E0012012675B008120126D1
:0301230075B00AAA
:10012600C28CE4FDFCC3ED9FEE6480F8EC6480981D
:100136005016758C3C758AB0C28DD28C308DFDC23E
:080146008C0DBD00010C80DDF1
:01014E00228E
:10000300E4F50975903FF5B0AF90EF12014F00AEE4
:100013000900930B00D80D00A20F006511006E15A7
:10002300004219004E1B00771D005D1F0091250043
:100033008C2900802D00D23900FC3D000001097598
:10004300B001E4F5087F5AFE0200A875B00C7F3CAE
:100053007E0012012675B008804B12011375B00C97
:10006300804375B00C7F707E17803A75B00E7F7039
:100073007E17803175B007E4F50802000B75B007F1
:100083007F287E00120126804675B0058041804A94
:1000930075B00C7F3C7E0012012675B008800612F5
:1000A300011375B00C12012602000BE508B401061A
:1000B30075B00502000BE4F9C3E9648094C64003FC
:1000C30002000B12011375B00C1201260980E975A9
:1000D300080102000BE508B4010675B00702000B26
:1000E300E4F9C3E9648094C6400302000B120113D0
:1000F30075B00C1201260980E975B0077508017FF8
:100103005A7E00120126E4F508F5B0D2B702000BBF
:10014F00D083D082F8E4937012740193700DA3A33F
:10015F0093F8740193F5828883E473740293686053
:06016F00EFA3A3A380DF53
:00000001FF
