:050ADA00313233343518
:100A7A000C213132333435363738392A30230C4B8E
:100A8A0001020304050607080900000001570001D6
:050A9A005B00015A01A0
:100909007590F0E59054F0F50864F060F37F017E8E
:1009190000120AA58590085308F0E50864F060F410
:100929007590FEE59054F0F50864F06005E4F5096A
:1009390080307590FDE59054F0F50864F060057518
:100949000901801E7590FBE59054F0F50864F0608C
:1009590005750902800C7590F7E59054F0F5087556
:100969000903E50864E07021120AA0D2B7E5097508
:10097900F003A4244BF8E6FFE5B054F04FF5B0E5D9
:100989000975F003A42421804CE50864D070211274
:100999000AA0D2B7E50975F003A4244CF8E6FFE5EF
:1009A900B054F04FF5B0E50975F003A42422802571
:1009B900E50864B07025120AA0D2B7E50975F003FD
:1009C900A4244DF8E6FFE5B054F04FF5B0E50975FC
:1009D900F003A42423F8E6FF1208007F647E0012C6
:0509E9000AA502090946
:020800008F0A5D
:10080200E50AB42A0AE5577003020908155722E5DA
:100812005764057072E50A6423706CF557120ABEBC
:10082200E55A640170343000297F207E03120AA544
:10083200C2B5755A02E4F5587FE87E03120AA5058F
:1008420058C3E5586480948740EED2B5E4F55BF571
:1008520057223000030209088047E55A6402600308
:100862000209087F207E03120AA5C297755A01E485
:10087200F5587FE87E03120AA50558C3E55864803F
:10088200948540EED29722E557D394054006E50AB7
:100892006423600DE557C394055053E50A64237041
:1008A2004DE4F559C2B47FA47E01120AA5D2B47FE9
:1008B200A47E01120AA5E4F5570559E559C394052A
:1008C20040E2055BE55BB40421E4F559C2B47F2044
:1008D2007E4E120AA5D2B4E4F55B7FA47E01120A11
:1008E200A50559E559C3940A40E2E4F55722742D4F
:1008F2002557F8A60A0557E557B41E0AE5B054F085
:060902004555F5B0809B95
:0109080022CC
:100ABE00E4FFEF900ADA93FE742D2FF8E6B50604E4
:0B0ACE00D2008003C200220FBF05E72A
:010AD90022FA
:050AA000C2B77F91FECA
:100AA500EF4E60147D737C00ED1D70011CED4C70E4
:080AB500F7EF1F70EB1E80E853
:010ABD002216
:030000000209EE04
:0C09EE00787FE4F6D8FD75815B020A35C5
:1009FA00020909E493A3F8E493A34003F68001F201
:100A0A0008DFF48029E493A3F85407240CC8C333FD
:100A1A00C4540F4420C8834004F456800146F6DFCC
:100A2A00E4800B0102040810204080900A7AE47ED8
:100A3A00019360BCA3FF543F30E509541FFEE493C1
:100A4A00A360010ECF54C025E060A840B8E493A388
:100A5A00FAE493A3F8E493A3C8C582C8CAC583CAB3
:100A6A00F0A3C8C582C8CAC583CADFE9DEE780BE6B
:010A9F000056
:00000001FF
